{
  "_format": "hh-sol-artifact-1",
  "contractName": "Identity",
  "sourceName": "contracts/Identity.sol",
  "abi": [
    {
      "inputs": [],
      "stateMutability": "nonpayable",
      "type": "constructor"
    },
    {
      "inputs": [],
      "name": "AccessControlBadConfirmation",
      "type": "error"
    },
    {
      "inputs": [
        {
          "internalType": "address",
          "name": "account",
          "type": "address"
        },
        {
          "internalType": "bytes32",
          "name": "neededRole",
          "type": "bytes32"
        }
      ],
      "name": "AccessControlUnauthorizedAccount",
      "type": "error"
    },
    {
      "anonymous": false,
      "inputs": [
        {
          "indexed": true,
          "internalType": "address",
          "name": "wallet",
          "type": "address"
        },
        {
          "indexed": false,
          "internalType": "string",
          "name": "did",
          "type": "string"
        },
        {
          "indexed": false,
          "internalType": "string",
          "name": "role",
          "type": "string"
        }
      ],
      "name": "IdentityRegistered",
      "type": "event"
    },
    {
      "anonymous": false,
      "inputs": [
        {
          "indexed": true,
          "internalType": "bytes32",
          "name": "role",
          "type": "bytes32"
        },
        {
          "indexed": true,
          "internalType": "bytes32",
          "name": "previousAdminRole",
          "type": "bytes32"
        },
        {
          "indexed": true,
          "internalType": "bytes32",
          "name": "newAdminRole",
          "type": "bytes32"
        }
      ],
      "name": "RoleAdminChanged",
      "type": "event"
    },
    {
      "anonymous": false,
      "inputs": [
        {
          "indexed": true,
          "internalType": "bytes32",
          "name": "role",
          "type": "bytes32"
        },
        {
          "indexed": true,
          "internalType": "address",
          "name": "account",
          "type": "address"
        },
        {
          "indexed": true,
          "internalType": "address",
          "name": "sender",
          "type": "address"
        }
      ],
      "name": "RoleGranted",
      "type": "event"
    },
    {
      "anonymous": false,
      "inputs": [
        {
          "indexed": true,
          "internalType": "bytes32",
          "name": "role",
          "type": "bytes32"
        },
        {
          "indexed": true,
          "internalType": "address",
          "name": "account",
          "type": "address"
        },
        {
          "indexed": true,
          "internalType": "address",
          "name": "sender",
          "type": "address"
        }
      ],
      "name": "RoleRevoked",
      "type": "event"
    },
    {
      "inputs": [],
      "name": "DEFAULT_ADMIN_ROLE",
      "outputs": [
        {
          "internalType": "bytes32",
          "name": "",
          "type": "bytes32"
        }
      ],
      "stateMutability": "view",
      "type": "function"
    },
    {
      "inputs": [],
      "name": "DOCTOR_ROLE",
      "outputs": [
        {
          "internalType": "bytes32",
          "name": "",
          "type": "bytes32"
        }
      ],
      "stateMutability": "view",
      "type": "function"
    },
    {
      "inputs": [],
      "name": "PATIENT_ROLE",
      "outputs": [
        {
          "internalType": "bytes32",
          "name": "",
          "type": "bytes32"
        }
      ],
      "stateMutability": "view",
      "type": "function"
    },
    {
      "inputs": [],
      "name": "RECEPTIONIST_ROLE",
      "outputs": [
        {
          "internalType": "bytes32",
          "name": "",
          "type": "bytes32"
        }
      ],
      "stateMutability": "view",
      "type": "function"
    },
    {
      "inputs": [
        {
          "internalType": "address",
          "name": "",
          "type": "address"
        }
      ],
      "name": "addressToDID",
      "outputs": [
        {
          "internalType": "string",
          "name": "",
          "type": "string"
        }
      ],
      "stateMutability": "view",
      "type": "function"
    },
    {
      "inputs": [
        {
          "internalType": "string",
          "name": "",
          "type": "string"
        }
      ],
      "name": "didToAddress",
      "outputs": [
        {
          "internalType": "address",
          "name": "",
          "type": "address"
        }
      ],
      "stateMutability": "view",
      "type": "function"
    },
    {
      "inputs": [
        {
          "internalType": "bytes32",
          "name": "role",
          "type": "bytes32"
        }
      ],
      "name": "getRoleAdmin",
      "outputs": [
        {
          "internalType": "bytes32",
          "name": "",
          "type": "bytes32"
        }
      ],
      "stateMutability": "view",
      "type": "function"
    },
    {
      "inputs": [
        {
          "internalType": "bytes32",
          "name": "role",
          "type": "bytes32"
        },
        {
          "internalType": "address",
          "name": "account",
          "type": "address"
        }
      ],
      "name": "grantRole",
      "outputs": [],
      "stateMutability": "nonpayable",
      "type": "function"
    },
    {
      "inputs": [
        {
          "internalType": "bytes32",
          "name": "role",
          "type": "bytes32"
        },
        {
          "internalType": "address",
          "name": "account",
          "type": "address"
        }
      ],
      "name": "hasRole",
      "outputs": [
        {
          "internalType": "bool",
          "name": "",
          "type": "bool"
        }
      ],
      "stateMutability": "view",
      "type": "function"
    },
    {
      "inputs": [
        {
          "internalType": "address",
          "name": "_wallet",
          "type": "address"
        }
      ],
      "name": "isDoctor",
      "outputs": [
        {
          "internalType": "bool",
          "name": "",
          "type": "bool"
        }
      ],
      "stateMutability": "view",
      "type": "function"
    },
    {
      "inputs": [
        {
          "internalType": "address",
          "name": "_userWallet",
          "type": "address"
        },
        {
          "internalType": "string",
          "name": "_did",
          "type": "string"
        },
        {
          "internalType": "string",
          "name": "_roleType",
          "type": "string"
        }
      ],
      "name": "registerIdentity",
      "outputs": [],
      "stateMutability": "nonpayable",
      "type": "function"
    },
    {
      "inputs": [
        {
          "internalType": "bytes32",
          "name": "role",
          "type": "bytes32"
        },
        {
          "internalType": "address",
          "name": "callerConfirmation",
          "type": "address"
        }
      ],
      "name": "renounceRole",
      "outputs": [],
      "stateMutability": "nonpayable",
      "type": "function"
    },
    {
      "inputs": [
        {
          "internalType": "bytes32",
          "name": "role",
          "type": "bytes32"
        },
        {
          "internalType": "address",
          "name": "account",
          "type": "address"
        }
      ],
      "name": "revokeRole",
      "outputs": [],
      "stateMutability": "nonpayable",
      "type": "function"
    },
    {
      "inputs": [
        {
          "internalType": "bytes4",
          "name": "interfaceId",
          "type": "bytes4"
        }
      ],
      "name": "supportsInterface",
      "outputs": [
        {
          "internalType": "bool",
          "name": "",
          "type": "bool"
        }
      ],
      "stateMutability": "view",
      "type": "function"
    }
  ],
  "bytecode": "0x6080604052348015600f57600080fd5b506019600033601e565b5060c7565b6000828152602081815260408083206001600160a01b038516845290915281205460ff1660bd576000838152602081815260408083206001600160a01b03861684529091529020805460ff1916600117905560763390565b6001600160a01b0316826001600160a01b0316847f2f8788117e7eff1d82e926ec794901d17c78024a50270940304540a733656f0d60405160405180910390a450600160c1565b5060005b92915050565b610c15806100d66000396000f3fe608060405234801561001057600080fd5b50600436106100ea5760003560e01c8063996440c61161008c578063b947f84a11610066578063b947f84a14610238578063d547741f1461024b578063f789c0a11461025e578063fec331f21461027e57600080fd5b8063996440c6146101f6578063a217fddf14610209578063ac5cb97d1461021157600080fd5b806336568abe116100c857806336568abe1461015d5780635ba16138146101705780636ba1f4a41461019757806391d14854146101e357600080fd5b806301ffc9a7146100ef578063248a9ca3146101175780632f2ff15d14610148575b600080fd5b6101026100fd3660046107e3565b6102a5565b60405190151581526020015b60405180910390f35b61013a610125366004610814565b60009081526020819052604090206001015490565b60405190815260200161010e565b61015b610156366004610849565b6102dc565b005b61015b61016b366004610849565b610307565b61013a7fb5a7f51d0593e853ad0aa6b718ee0bdd10c4966eb62d243b69d538e5823d040181565b6101cb6101a536600461091a565b80516020818301810180516002825292820191909301209152546001600160a01b031681565b6040516001600160a01b03909116815260200161010e565b6101026101f1366004610849565b61033f565b610102610204366004610957565b610368565b61013a600081565b61013a7f72606200fac42b7dc86b75901d61ecfab2a4a1a6eded478b97a428094891abed81565b61015b610246366004610972565b610394565b61015b610259366004610849565b6105d9565b61027161026c366004610957565b6105fe565b60405161010e9190610a3b565b61013a7f0af1dac7dea2fd7f7738119cec7df099dfad49aa9d2e7d17ba6b60f63ae7411f81565b60006001600160e01b03198216637965db0b60e01b14806102d657506301ffc9a760e01b6001600160e01b03198316145b92915050565b6000828152602081905260409020600101546102f781610698565b61030183836106a5565b50505050565b6001600160a01b03811633146103305760405163334bd91960e11b815260040160405180910390fd5b61033a8282610737565b505050565b6000918252602082815260408084206001600160a01b0393909316845291905290205460ff1690565b60006102d67f0af1dac7dea2fd7f7738119cec7df099dfad49aa9d2e7d17ba6b60f63ae7411f8361033f565b600061039f81610698565b6001600160a01b03841660009081526001602052604090206103c18482610ad6565b50836002846040516103d39190610b95565b9081526040516020918190038201812080546001600160a01b0319166001600160a01b039490941693909317909255652227a1aa27a960d11b90820152602601604051602081830303815290604052805190602001208260405160200161043a9190610b95565b60405160208183030381529060405280519060200120036104855761047f7f0af1dac7dea2fd7f7738119cec7df099dfad49aa9d2e7d17ba6b60f63ae7411f856106a5565b50610590565b604051661410551251539560ca1b602082015260270160405160208183030381529060405280519060200120826040516020016104c29190610b95565b60405160208183030381529060405280519060200120036105075761047f7f72606200fac42b7dc86b75901d61ecfab2a4a1a6eded478b97a428094891abed856106a5565b6040516b149150d154151253d39254d560a21b6020820152602c0160405160208183030381529060405280519060200120826040516020016105499190610b95565b60405160208183030381529060405280519060200120036105905761058e7fb5a7f51d0593e853ad0aa6b718ee0bdd10c4966eb62d243b69d538e5823d0401856106a5565b505b836001600160a01b03167fdc8c7948efd57970d2239c1bd917b1aacccb1af7b9d31499bb5ed1f80a79252784846040516105cb929190610bb1565b60405180910390a250505050565b6000828152602081905260409020600101546105f481610698565b6103018383610737565b6001602052600090815260409020805461061790610a4e565b80601f016020809104026020016040519081016040528092919081815260200182805461064390610a4e565b80156106905780601f1061066557610100808354040283529160200191610690565b820191906000526020600020905b81548152906001019060200180831161067357829003601f168201915b505050505081565b6106a281336107a2565b50565b60006106b1838361033f565b61072f576000838152602081815260408083206001600160a01b03861684529091529020805460ff191660011790556106e73390565b6001600160a01b0316826001600160a01b0316847f2f8788117e7eff1d82e926ec794901d17c78024a50270940304540a733656f0d60405160405180910390a45060016102d6565b5060006102d6565b6000610743838361033f565b1561072f576000838152602081815260408083206001600160a01b0386168085529252808320805460ff1916905551339286917ff6391f5c32d9c69d2a47ea670b442974b53935d1edc7fd64eb21e047a839171b9190a45060016102d6565b6107ac828261033f565b6107df5760405163e2517d3f60e01b81526001600160a01b03821660048201526024810183905260440160405180910390fd5b5050565b6000602082840312156107f557600080fd5b81356001600160e01b03198116811461080d57600080fd5b9392505050565b60006020828403121561082657600080fd5b5035919050565b80356001600160a01b038116811461084457600080fd5b919050565b6000806040838503121561085c57600080fd5b8235915061086c6020840161082d565b90509250929050565b634e487b7160e01b600052604160045260246000fd5b600082601f83011261089c57600080fd5b813567ffffffffffffffff8111156108b6576108b6610875565b604051601f8201601f19908116603f0116810167ffffffffffffffff811182821017156108e5576108e5610875565b6040528181528382016020018510156108fd57600080fd5b816020850160208301376000918101602001919091529392505050565b60006020828403121561092c57600080fd5b813567ffffffffffffffff81111561094357600080fd5b61094f8482850161088b565b949350505050565b60006020828403121561096957600080fd5b61080d8261082d565b60008060006060848603121561098757600080fd5b6109908461082d565b9250602084013567ffffffffffffffff8111156109ac57600080fd5b6109b88682870161088b565b925050604084013567ffffffffffffffff8111156109d557600080fd5b6109e18682870161088b565b9150509250925092565b60005b83811015610a065781810151838201526020016109ee565b50506000910152565b60008151808452610a278160208601602086016109eb565b601f01601f19169290920160200192915050565b60208152600061080d6020830184610a0f565b600181811c90821680610a6257607f821691505b602082108103610a8257634e487b7160e01b600052602260045260246000fd5b50919050565b601f82111561033a57806000526020600020601f840160051c81016020851015610aaf5750805b601f840160051c820191505b81811015610acf5760008155600101610abb565b5050505050565b815167ffffffffffffffff811115610af057610af0610875565b610b0481610afe8454610a4e565b84610a88565b6020601f821160018114610b385760008315610b205750848201515b600019600385901b1c1916600184901b178455610acf565b600084815260208120601f198516915b82811015610b685787850151825560209485019460019092019101610b48565b5084821015610b865786840151600019600387901b60f8161c191681555b50505050600190811b01905550565b60008251610ba78184602087016109eb565b9190910192915050565b604081526000610bc46040830185610a0f565b8281036020840152610bd68185610a0f565b9594505050505056fea2646970667358221220b0a6085b9724958aad8e242b05d08298d53e8b4af3ed36f2154d42498ab7c4a264736f6c634300081c0033",
  "linkReferences": {},
  "deployedLinkReferences": {}
}