{
  "_format": "hh-sol-artifact-1",
  "contractName": "Record",
  "sourceName": "contracts/Record.sol",
  "abi": [
    {
      "inputs": [
        {
          "internalType": "address",
          "name": "_identityContractAddress",
          "type": "address"
        }
      ],
      "stateMutability": "nonpayable",
      "type": "constructor"
    },
    {
      "anonymous": false,
      "inputs": [
        {
          "indexed": true,
          "internalType": "uint256",
          "name": "recordId",
          "type": "uint256"
        },
        {
          "indexed": false,
          "internalType": "string",
          "name": "newStatus",
          "type": "string"
        }
      ],
      "name": "RecordStatusUpdated",
      "type": "event"
    },
    {
      "anonymous": false,
      "inputs": [
        {
          "indexed": true,
          "internalType": "uint256",
          "name": "recordId",
          "type": "uint256"
        },
        {
          "indexed": true,
          "internalType": "address",
          "name": "patient",
          "type": "address"
        },
        {
          "indexed": true,
          "internalType": "address",
          "name": "doctor",
          "type": "address"
        },
        {
          "indexed": false,
          "internalType": "string",
          "name": "status",
          "type": "string"
        }
      ],
      "name": "RecordUploaded",
      "type": "event"
    },
    {
      "inputs": [],
      "name": "DOCTOR_ROLE",
      "outputs": [
        {
          "internalType": "bytes32",
          "name": "",
          "type": "bytes32"
        }
      ],
      "stateMutability": "view",
      "type": "function"
    },
    {
      "inputs": [],
      "name": "identityContractAddress",
      "outputs": [
        {
          "internalType": "address",
          "name": "",
          "type": "address"
        }
      ],
      "stateMutability": "view",
      "type": "function"
    },
    {
      "inputs": [],
      "name": "recordCount",
      "outputs": [
        {
          "internalType": "uint256",
          "name": "",
          "type": "uint256"
        }
      ],
      "stateMutability": "view",
      "type": "function"
    },
    {
      "inputs": [
        {
          "internalType": "uint256",
          "name": "",
          "type": "uint256"
        }
      ],
      "name": "records",
      "outputs": [
        {
          "internalType": "string",
          "name": "ipfsHash",
          "type": "string"
        },
        {
          "internalType": "string",
          "name": "fileName",
          "type": "string"
        },
        {
          "internalType": "address",
          "name": "patient",
          "type": "address"
        },
        {
          "internalType": "address",
          "name": "doctor",
          "type": "address"
        },
        {
          "internalType": "uint256",
          "name": "timestamp",
          "type": "uint256"
        },
        {
          "internalType": "string",
          "name": "status",
          "type": "string"
        }
      ],
      "stateMutability": "view",
      "type": "function"
    },
    {
      "inputs": [
        {
          "internalType": "uint256",
          "name": "_recordId",
          "type": "uint256"
        },
        {
          "internalType": "string",
          "name": "_newStatus",
          "type": "string"
        }
      ],
      "name": "updateStatus",
      "outputs": [],
      "stateMutability": "nonpayable",
      "type": "function"
    },
    {
      "inputs": [
        {
          "internalType": "string",
          "name": "_ipfsHash",
          "type": "string"
        },
        {
          "internalType": "string",
          "name": "_fileName",
          "type": "string"
        },
        {
          "internalType": "address",
          "name": "_patient",
          "type": "address"
        }
      ],
      "name": "uploadRecord",
      "outputs": [],
      "stateMutability": "nonpayable",
      "type": "function"
    }
  ],
  "bytecode": "0x6080604052348015600f57600080fd5b50604051610b16380380610b16833981016040819052602c9160a9565b6001600160a01b03811660855760405162461bcd60e51b815260206004820152601f60248201527f4964656e7469747920616464726573732063616e6e6f74206265207a65726f00604482015260640160405180910390fd5b600280546001600160a01b0319166001600160a01b039290921691909117905560d7565b60006020828403121560ba57600080fd5b81516001600160a01b038116811460d057600080fd5b9392505050565b610a30806100e66000396000f3fe608060405234801561001057600080fd5b50600436106100625760003560e01c8063344610671461006757806351ae2cc014610095578063900407bc146100c0578063a9c14280146100d7578063d1b34dd8146100ec578063fec331f2146100ff575b600080fd5b61007a610075366004610617565b610126565b60405161008c96959493929190610676565b60405180910390f35b6002546100a8906001600160a01b031681565b6040516001600160a01b03909116815260200161008c565b6100c960015481565b60405190815260200161008c565b6100ea6100e536600461077f565b610303565b005b6100ea6100fa366004610808565b61054a565b6100c97f0af1dac7dea2fd7f7738119cec7df099dfad49aa9d2e7d17ba6b60f63ae7411f81565b6000602081905290815260409020805481906101419061084f565b80601f016020809104026020016040519081016040528092919081815260200182805461016d9061084f565b80156101ba5780601f1061018f576101008083540402835291602001916101ba565b820191906000526020600020905b81548152906001019060200180831161019d57829003601f168201915b5050505050908060010180546101cf9061084f565b80601f01602080910402602001604051908101604052809291908181526020018280546101fb9061084f565b80156102485780601f1061021d57610100808354040283529160200191610248565b820191906000526020600020905b81548152906001019060200180831161022b57829003601f168201915b5050505060028301546003840154600485015460058601805495966001600160a01b039485169694909316945090926102809061084f565b80601f01602080910402602001604051908101604052809291908181526020018280546102ac9061084f565b80156102f95780601f106102ce576101008083540402835291602001916102f9565b820191906000526020600020905b8154815290600101906020018083116102dc57829003601f168201915b5050505050905086565b600254604051632474521560e21b81527f0af1dac7dea2fd7f7738119cec7df099dfad49aa9d2e7d17ba6b60f63ae7411f60048201523360248201526000916001600160a01b0316906391d1485490604401602060405180830381865afa158015610372573d6000803e3d6000fd5b505050506040513d601f19601f820116820180604052508101906103969190610889565b9050806103ea5760405162461bcd60e51b815260206004820152601f60248201527f43616c6c6572206973206e6f74206120766572696669656420446f63746f720060448201526064015b60405180910390fd5b600180549060006103fa836108b2565b90915550506040805160c08101825285815260208082018690526001600160a01b0385168284015233606083015242608083015282518084018452600781526650454e44494e4760c81b8183015260a0830152600154600090815290819052919091208151819061046b9082610928565b50602082015160018201906104809082610928565b5060408201516002820180546001600160a01b039283166001600160a01b03199182161790915560608401516003840180549190931691161790556080820151600482015560a082015160058201906104d99082610928565b50905050336001600160a01b0316826001600160a01b03166001547e6f9f3a79b38127f121f7138a4f44cf2a83675c35c3ffd95da9a29fd568537760405161053c9060208082526007908201526650454e44494e4760c81b604082015260600190565b60405180910390a450505050565b6000828152602081905260409020600301546001600160a01b031633146105bf5760405162461bcd60e51b815260206004820152602360248201527f4f6e6c79207468652075706c6f616465722063616e207570646174652073746160448201526274757360e81b60648201526084016103e1565b60008281526020819052604090206005016105da8282610928565b50817f763780566ad325000b8abd15b8a06de23eaa90e1bd09f2213603283a84a294048260405161060b91906109e7565b60405180910390a25050565b60006020828403121561062957600080fd5b5035919050565b6000815180845260005b818110156106565760208185018101518683018201520161063a565b506000602082860101526020601f19601f83011685010191505092915050565b60c08152600061068960c0830189610630565b828103602084015261069b8189610630565b6001600160a01b038881166040860152871660608501526080840186905283810360a085015290506106cd8185610630565b9998505050505050505050565b634e487b7160e01b600052604160045260246000fd5b600082601f83011261070157600080fd5b813567ffffffffffffffff81111561071b5761071b6106da565b604051601f8201601f19908116603f0116810167ffffffffffffffff8111828210171561074a5761074a6106da565b60405281815283820160200185101561076257600080fd5b816020850160208301376000918101602001919091529392505050565b60008060006060848603121561079457600080fd5b833567ffffffffffffffff8111156107ab57600080fd5b6107b7868287016106f0565b935050602084013567ffffffffffffffff8111156107d457600080fd5b6107e0868287016106f0565b92505060408401356001600160a01b03811681146107fd57600080fd5b809150509250925092565b6000806040838503121561081b57600080fd5b82359150602083013567ffffffffffffffff81111561083957600080fd5b610845858286016106f0565b9150509250929050565b600181811c9082168061086357607f821691505b60208210810361088357634e487b7160e01b600052602260045260246000fd5b50919050565b60006020828403121561089b57600080fd5b815180151581146108ab57600080fd5b9392505050565b6000600182016108d257634e487b7160e01b600052601160045260246000fd5b5060010190565b601f82111561092357806000526020600020601f840160051c810160208510156109005750805b601f840160051c820191505b81811015610920576000815560010161090c565b50505b505050565b815167ffffffffffffffff811115610942576109426106da565b61095681610950845461084f565b846108d9565b6020601f82116001811461098a57600083156109725750848201515b600019600385901b1c1916600184901b178455610920565b600084815260208120601f198516915b828110156109ba578785015182556020948501946001909201910161099a565b50848210156109d85786840151600019600387901b60f8161c191681555b50505050600190811b01905550565b6020815260006108ab602083018461063056fea2646970667358221220af1860fcbbd440b26e854fc5865b9804c4954531322fce61f815fab6ac4291d264736f6c634300081c0033",
  "linkReferences": {},
  "deployedLinkReferences": {}
}